{
  "address": "0x5FbDB2315678afecb367f032d93F642f64180aa3",
  "abi": [
    {
      "inputs": [],
      "stateMutability": "nonpayable",
      "type": "constructor"
    },
    {
      "anonymous": false,
      "inputs": [
        {
          "indexed": true,
          "internalType": "address",
          "name": "account",
          "type": "address"
        },
        {
          "indexed": true,
          "internalType": "address",
          "name": "operator",
          "type": "address"
        },
        {
          "indexed": false,
          "internalType": "bool",
          "name": "approved",
          "type": "bool"
        }
      ],
      "name": "ApprovalForAll",
      "type": "event"
    },
    {
      "anonymous": false,
      "inputs": [
        {
          "indexed": false,
          "internalType": "address",
          "name": "account",
          "type": "address"
        }
      ],
      "name": "Paused",
      "type": "event"
    },
    {
      "anonymous": false,
      "inputs": [
        {
          "indexed": true,
          "internalType": "bytes32",
          "name": "role",
          "type": "bytes32"
        },
        {
          "indexed": true,
          "internalType": "bytes32",
          "name": "previousAdminRole",
          "type": "bytes32"
        },
        {
          "indexed": true,
          "internalType": "bytes32",
          "name": "newAdminRole",
          "type": "bytes32"
        }
      ],
      "name": "RoleAdminChanged",
      "type": "event"
    },
    {
      "anonymous": false,
      "inputs": [
        {
          "indexed": true,
          "internalType": "bytes32",
          "name": "role",
          "type": "bytes32"
        },
        {
          "indexed": true,
          "internalType": "address",
          "name": "account",
          "type": "address"
        },
        {
          "indexed": true,
          "internalType": "address",
          "name": "sender",
          "type": "address"
        }
      ],
      "name": "RoleGranted",
      "type": "event"
    },
    {
      "anonymous": false,
      "inputs": [
        {
          "indexed": true,
          "internalType": "bytes32",
          "name": "role",
          "type": "bytes32"
        },
        {
          "indexed": true,
          "internalType": "address",
          "name": "account",
          "type": "address"
        },
        {
          "indexed": true,
          "internalType": "address",
          "name": "sender",
          "type": "address"
        }
      ],
      "name": "RoleRevoked",
      "type": "event"
    },
    {
      "anonymous": false,
      "inputs": [
        {
          "indexed": true,
          "internalType": "address",
          "name": "operator",
          "type": "address"
        },
        {
          "indexed": true,
          "internalType": "address",
          "name": "from",
          "type": "address"
        },
        {
          "indexed": true,
          "internalType": "address",
          "name": "to",
          "type": "address"
        },
        {
          "indexed": false,
          "internalType": "uint256[]",
          "name": "ids",
          "type": "uint256[]"
        },
        {
          "indexed": false,
          "internalType": "uint256[]",
          "name": "values",
          "type": "uint256[]"
        }
      ],
      "name": "TransferBatch",
      "type": "event"
    },
    {
      "anonymous": false,
      "inputs": [
        {
          "indexed": true,
          "internalType": "address",
          "name": "operator",
          "type": "address"
        },
        {
          "indexed": true,
          "internalType": "address",
          "name": "from",
          "type": "address"
        },
        {
          "indexed": true,
          "internalType": "address",
          "name": "to",
          "type": "address"
        },
        {
          "indexed": false,
          "internalType": "uint256",
          "name": "id",
          "type": "uint256"
        },
        {
          "indexed": false,
          "internalType": "uint256",
          "name": "value",
          "type": "uint256"
        }
      ],
      "name": "TransferSingle",
      "type": "event"
    },
    {
      "anonymous": false,
      "inputs": [
        {
          "indexed": false,
          "internalType": "string",
          "name": "value",
          "type": "string"
        },
        {
          "indexed": true,
          "internalType": "uint256",
          "name": "id",
          "type": "uint256"
        }
      ],
      "name": "URI",
      "type": "event"
    },
    {
      "anonymous": false,
      "inputs": [
        {
          "indexed": false,
          "internalType": "address",
          "name": "account",
          "type": "address"
        }
      ],
      "name": "Unpaused",
      "type": "event"
    },
    {
      "inputs": [],
      "name": "DEFAULT_ADMIN_ROLE",
      "outputs": [
        {
          "internalType": "bytes32",
          "name": "",
          "type": "bytes32"
        }
      ],
      "stateMutability": "view",
      "type": "function"
    },
    {
      "inputs": [],
      "name": "GOLD",
      "outputs": [
        {
          "internalType": "uint256",
          "name": "",
          "type": "uint256"
        }
      ],
      "stateMutability": "view",
      "type": "function"
    },
    {
      "inputs": [],
      "name": "MINTER_ROLE",
      "outputs": [
        {
          "internalType": "bytes32",
          "name": "",
          "type": "bytes32"
        }
      ],
      "stateMutability": "view",
      "type": "function"
    },
    {
      "inputs": [],
      "name": "PAUSER_ROLE",
      "outputs": [
        {
          "internalType": "bytes32",
          "name": "",
          "type": "bytes32"
        }
      ],
      "stateMutability": "view",
      "type": "function"
    },
    {
      "inputs": [],
      "name": "SHIELD",
      "outputs": [
        {
          "internalType": "uint256",
          "name": "",
          "type": "uint256"
        }
      ],
      "stateMutability": "view",
      "type": "function"
    },
    {
      "inputs": [],
      "name": "SILVER",
      "outputs": [
        {
          "internalType": "uint256",
          "name": "",
          "type": "uint256"
        }
      ],
      "stateMutability": "view",
      "type": "function"
    },
    {
      "inputs": [],
      "name": "SWORD",
      "outputs": [
        {
          "internalType": "uint256",
          "name": "",
          "type": "uint256"
        }
      ],
      "stateMutability": "view",
      "type": "function"
    },
    {
      "inputs": [],
      "name": "THORS_HAMMER",
      "outputs": [
        {
          "internalType": "uint256",
          "name": "",
          "type": "uint256"
        }
      ],
      "stateMutability": "view",
      "type": "function"
    },
    {
      "inputs": [
        {
          "internalType": "address",
          "name": "account",
          "type": "address"
        },
        {
          "internalType": "uint256",
          "name": "id",
          "type": "uint256"
        }
      ],
      "name": "balanceOf",
      "outputs": [
        {
          "internalType": "uint256",
          "name": "",
          "type": "uint256"
        }
      ],
      "stateMutability": "view",
      "type": "function"
    },
    {
      "inputs": [
        {
          "internalType": "address[]",
          "name": "accounts",
          "type": "address[]"
        },
        {
          "internalType": "uint256[]",
          "name": "ids",
          "type": "uint256[]"
        }
      ],
      "name": "balanceOfBatch",
      "outputs": [
        {
          "internalType": "uint256[]",
          "name": "",
          "type": "uint256[]"
        }
      ],
      "stateMutability": "view",
      "type": "function"
    },
    {
      "inputs": [
        {
          "internalType": "address",
          "name": "account",
          "type": "address"
        },
        {
          "internalType": "uint256",
          "name": "id",
          "type": "uint256"
        },
        {
          "internalType": "uint256",
          "name": "value",
          "type": "uint256"
        }
      ],
      "name": "burn",
      "outputs": [],
      "stateMutability": "nonpayable",
      "type": "function"
    },
    {
      "inputs": [
        {
          "internalType": "address",
          "name": "account",
          "type": "address"
        },
        {
          "internalType": "uint256[]",
          "name": "ids",
          "type": "uint256[]"
        },
        {
          "internalType": "uint256[]",
          "name": "values",
          "type": "uint256[]"
        }
      ],
      "name": "burnBatch",
      "outputs": [],
      "stateMutability": "nonpayable",
      "type": "function"
    },
    {
      "inputs": [
        {
          "internalType": "bytes32",
          "name": "role",
          "type": "bytes32"
        }
      ],
      "name": "getRoleAdmin",
      "outputs": [
        {
          "internalType": "bytes32",
          "name": "",
          "type": "bytes32"
        }
      ],
      "stateMutability": "view",
      "type": "function"
    },
    {
      "inputs": [
        {
          "internalType": "bytes32",
          "name": "role",
          "type": "bytes32"
        },
        {
          "internalType": "uint256",
          "name": "index",
          "type": "uint256"
        }
      ],
      "name": "getRoleMember",
      "outputs": [
        {
          "internalType": "address",
          "name": "",
          "type": "address"
        }
      ],
      "stateMutability": "view",
      "type": "function"
    },
    {
      "inputs": [
        {
          "internalType": "bytes32",
          "name": "role",
          "type": "bytes32"
        }
      ],
      "name": "getRoleMemberCount",
      "outputs": [
        {
          "internalType": "uint256",
          "name": "",
          "type": "uint256"
        }
      ],
      "stateMutability": "view",
      "type": "function"
    },
    {
      "inputs": [
        {
          "internalType": "bytes32",
          "name": "role",
          "type": "bytes32"
        },
        {
          "internalType": "address",
          "name": "account",
          "type": "address"
        }
      ],
      "name": "grantRole",
      "outputs": [],
      "stateMutability": "nonpayable",
      "type": "function"
    },
    {
      "inputs": [
        {
          "internalType": "bytes32",
          "name": "role",
          "type": "bytes32"
        },
        {
          "internalType": "address",
          "name": "account",
          "type": "address"
        }
      ],
      "name": "hasRole",
      "outputs": [
        {
          "internalType": "bool",
          "name": "",
          "type": "bool"
        }
      ],
      "stateMutability": "view",
      "type": "function"
    },
    {
      "inputs": [
        {
          "internalType": "address",
          "name": "account",
          "type": "address"
        },
        {
          "internalType": "address",
          "name": "operator",
          "type": "address"
        }
      ],
      "name": "isApprovedForAll",
      "outputs": [
        {
          "internalType": "bool",
          "name": "",
          "type": "bool"
        }
      ],
      "stateMutability": "view",
      "type": "function"
    },
    {
      "inputs": [
        {
          "internalType": "address",
          "name": "to",
          "type": "address"
        },
        {
          "internalType": "uint256",
          "name": "id",
          "type": "uint256"
        },
        {
          "internalType": "uint256",
          "name": "amount",
          "type": "uint256"
        },
        {
          "internalType": "bytes",
          "name": "data",
          "type": "bytes"
        }
      ],
      "name": "mint",
      "outputs": [],
      "stateMutability": "nonpayable",
      "type": "function"
    },
    {
      "inputs": [
        {
          "internalType": "address",
          "name": "to",
          "type": "address"
        },
        {
          "internalType": "uint256[]",
          "name": "ids",
          "type": "uint256[]"
        },
        {
          "internalType": "uint256[]",
          "name": "amounts",
          "type": "uint256[]"
        },
        {
          "internalType": "bytes",
          "name": "data",
          "type": "bytes"
        }
      ],
      "name": "mintBatch",
      "outputs": [],
      "stateMutability": "nonpayable",
      "type": "function"
    },
    {
      "inputs": [],
      "name": "pause",
      "outputs": [],
      "stateMutability": "nonpayable",
      "type": "function"
    },
    {
      "inputs": [],
      "name": "paused",
      "outputs": [
        {
          "internalType": "bool",
          "name": "",
          "type": "bool"
        }
      ],
      "stateMutability": "view",
      "type": "function"
    },
    {
      "inputs": [
        {
          "internalType": "bytes32",
          "name": "role",
          "type": "bytes32"
        },
        {
          "internalType": "address",
          "name": "account",
          "type": "address"
        }
      ],
      "name": "renounceRole",
      "outputs": [],
      "stateMutability": "nonpayable",
      "type": "function"
    },
    {
      "inputs": [
        {
          "internalType": "bytes32",
          "name": "role",
          "type": "bytes32"
        },
        {
          "internalType": "address",
          "name": "account",
          "type": "address"
        }
      ],
      "name": "revokeRole",
      "outputs": [],
      "stateMutability": "nonpayable",
      "type": "function"
    },
    {
      "inputs": [
        {
          "internalType": "address",
          "name": "from",
          "type": "address"
        },
        {
          "internalType": "address",
          "name": "to",
          "type": "address"
        },
        {
          "internalType": "uint256[]",
          "name": "ids",
          "type": "uint256[]"
        },
        {
          "internalType": "uint256[]",
          "name": "amounts",
          "type": "uint256[]"
        },
        {
          "internalType": "bytes",
          "name": "data",
          "type": "bytes"
        }
      ],
      "name": "safeBatchTransferFrom",
      "outputs": [],
      "stateMutability": "nonpayable",
      "type": "function"
    },
    {
      "inputs": [
        {
          "internalType": "address",
          "name": "from",
          "type": "address"
        },
        {
          "internalType": "address",
          "name": "to",
          "type": "address"
        },
        {
          "internalType": "uint256",
          "name": "id",
          "type": "uint256"
        },
        {
          "internalType": "uint256",
          "name": "amount",
          "type": "uint256"
        },
        {
          "internalType": "bytes",
          "name": "data",
          "type": "bytes"
        }
      ],
      "name": "safeTransferFrom",
      "outputs": [],
      "stateMutability": "nonpayable",
      "type": "function"
    },
    {
      "inputs": [
        {
          "internalType": "address",
          "name": "operator",
          "type": "address"
        },
        {
          "internalType": "bool",
          "name": "approved",
          "type": "bool"
        }
      ],
      "name": "setApprovalForAll",
      "outputs": [],
      "stateMutability": "nonpayable",
      "type": "function"
    },
    {
      "inputs": [
        {
          "internalType": "bytes4",
          "name": "interfaceId",
          "type": "bytes4"
        }
      ],
      "name": "supportsInterface",
      "outputs": [
        {
          "internalType": "bool",
          "name": "",
          "type": "bool"
        }
      ],
      "stateMutability": "view",
      "type": "function"
    },
    {
      "inputs": [],
      "name": "unpause",
      "outputs": [],
      "stateMutability": "nonpayable",
      "type": "function"
    },
    {
      "inputs": [
        {
          "internalType": "uint256",
          "name": "",
          "type": "uint256"
        }
      ],
      "name": "uri",
      "outputs": [
        {
          "internalType": "string",
          "name": "",
          "type": "string"
        }
      ],
      "stateMutability": "view",
      "type": "function"
    }
  ],
  "transactionHash": "0xcead3fec0bc8c201e08cb5c558d82976ed8e9489c22bc76f198f77f6449684fc",
  "args": [],
  "numDeployments": 1,
  "solcInputHash": "6b4c5268d8f2aa5b9006efea269dc355",
  "bytecode": "0x60806040523480156200001157600080fd5b50604051806060016040528060278152602001620033e46027913980620000388162000180565b506005805460ff191690556200005060003362000199565b6200007c7f9f2df0fed2c77648de5860a4cc508cd0818c85b8b8a1ab4ceeef8d981c8956a63362000199565b620000a87f65d7a28e3265b37a6474929f336521b332c1681b933f6cb9f3376673440d862a3362000199565b50620000d5336000670de0b6b3a764000060405180602001604052806000815250620001a560201b60201c565b620001053360016b033b2e3c9fd0803ce800000060405180602001604052806000815250620001a560201b60201c565b6200012a336002600160405180602001604052806000815250620001a560201b60201c565b62000152336003633b9aca0060405180602001604052806000815250620001a560201b60201c565b6200017a336004633b9aca0060405180602001604052806000815250620001a560201b60201c565b620009f4565b8051620001959060049060208401906200070e565b5050565b620001958282620002ce565b6001600160a01b0384166200020b5760405162461bcd60e51b815260206004820152602160248201527f455243313135353a206d696e7420746f20746865207a65726f206164647265736044820152607360f81b60648201526084015b60405180910390fd5b3362000231816000876200021f8862000311565b6200022a8862000311565b876200035f565b60008481526002602090815260408083206001600160a01b03891684529091528120805485929062000265908490620007b4565b909155505060408051858152602081018590526001600160a01b0380881692600092918516917fc3d58168c5ae7397731d063d5bbf3d657854427343f4c083240f7aacaa2d0f62910160405180910390a4620002c78160008787878762000382565b5050505050565b620002e582826200056860201b62000b5c1760201c565b60008281526001602090815260409091206200030c91839062000be062000608821b17901c565b505050565b604080516001808252818301909252606091600091906020808301908036833701905050905082816000815181106200034e576200034e620007db565b602090810291909101015292915050565b6200037a8686868686866200062860201b62000bf51760201c565b505050505050565b620003a1846001600160a01b0316620006ad60201b62000c651760201c565b156200037a5760405163f23a6e6160e01b81526001600160a01b0385169063f23a6e6190620003dd908990899088908890889060040162000841565b602060405180830381600087803b158015620003f857600080fd5b505af19250505080156200042b575060408051601f3d908101601f19168201909252620004289181019062000888565b60015b620004ec576200043a620008bb565b806308c379a014156200047b57506200045262000913565b806200045f57506200047d565b8060405162461bcd60e51b8152600401620002029190620009a2565b505b60405162461bcd60e51b815260206004820152603460248201527f455243313135353a207472616e7366657220746f206e6f6e204552433131353560448201527f526563656976657220696d706c656d656e746572000000000000000000000000606482015260840162000202565b6001600160e01b0319811663f23a6e6160e01b146200055f5760405162461bcd60e51b815260206004820152602860248201527f455243313135353a204552433131353552656365697665722072656a656374656044820152676420746f6b656e7360c01b606482015260840162000202565b50505050505050565b6000828152602081815260408083206001600160a01b038516845290915290205460ff1662000195576000828152602081815260408083206001600160a01b03851684529091529020805460ff19166001179055620005c43390565b6001600160a01b0316816001600160a01b0316837f2f8788117e7eff1d82e926ec794901d17c78024a50270940304540a733656f0d60405160405180910390a45050565b60006200061f836001600160a01b038416620006bc565b90505b92915050565b620006438686868686866200037a60201b62000c5d1760201c565b60055460ff16156200037a5760405162461bcd60e51b815260206004820152602c60248201527f455243313135355061757361626c653a20746f6b656e207472616e736665722060448201526b1dda1a5b19481c185d5cd95960a21b606482015260840162000202565b6001600160a01b03163b151590565b6000818152600183016020526040812054620007055750815460018181018455600084815260208082209093018490558454848252828601909352604090209190915562000622565b50600062000622565b8280546200071c90620009b7565b90600052602060002090601f0160209004810192826200074057600085556200078b565b82601f106200075b57805160ff19168380011785556200078b565b828001600101855582156200078b579182015b828111156200078b5782518255916020019190600101906200076e565b50620007999291506200079d565b5090565b5b808211156200079957600081556001016200079e565b60008219821115620007d657634e487b7160e01b600052601160045260246000fd5b500190565b634e487b7160e01b600052603260045260246000fd5b6000815180845260005b818110156200081957602081850181015186830182015201620007fb565b818111156200082c576000602083870101525b50601f01601f19169290920160200192915050565b6001600160a01b03868116825285166020820152604081018490526060810183905260a0608082018190526000906200087d90830184620007f1565b979650505050505050565b6000602082840312156200089b57600080fd5b81516001600160e01b031981168114620008b457600080fd5b9392505050565b600060033d1115620008d55760046000803e5060005160e01c5b90565b601f8201601f191681016001600160401b03811182821017156200090c57634e487b7160e01b600052604160045260246000fd5b6040525050565b600060443d1015620009225790565b6040516003193d81016004833e81513d6001600160401b0380831160248401831017156200095257505050505090565b82850191508151818111156200096b5750505050505090565b843d8701016020828501011115620009865750505050505090565b6200099760208286010187620008d8565b509095945050505050565b6020815260006200061f6020830184620007f1565b600181811c90821680620009cc57607f821691505b60208210811415620009ee57634e487b7160e01b600052602260045260246000fd5b50919050565b6129e08062000a046000396000f3fe608060405234801561001057600080fd5b50600436106101d95760003560e01c8063731133e911610104578063d5391393116100a2578063e63ab1e911610071578063e63ab1e9146103df578063e985e9c514610406578063f242432a14610442578063f5298aca1461045557600080fd5b8063d539139314610395578063d547741f146103bc578063d562e204146103cf578063e3e55f08146103d757600080fd5b806391d14854116100de57806391d148541461035c578063a217fddf146102c0578063a22cb4651461036f578063ca15c8731461038257600080fd5b8063731133e9146103165780638456cb59146103295780639010d07c1461033157600080fd5b80632f2ff15d1161017c5780634e1273f41161014b5780634e1273f4146102d05780635b2725ed146102f05780635c975abb146102f85780636b20c4541461030357600080fd5b80632f2ff15d1461029a57806336568abe146102ad5780633e4bee38146102c05780633f4ba83a146102c857600080fd5b806313dc989f116101b857806313dc989f146102475780631f7fdffa1461024f578063248a9ca3146102645780632eb2c2d61461028757600080fd5b8062fdd58e146101de57806301ffc9a7146102045780630e89341c14610227575b600080fd5b6101f16101ec366004611d76565b610468565b6040519081526020015b60405180910390f35b610217610212366004611db9565b610504565b60405190151581526020016101fb565b61023a610235366004611dd6565b61050f565b6040516101fb9190611e47565b6101f1600381565b61026261025d366004611fa6565b6105a3565b005b6101f1610272366004611dd6565b60009081526020819052604090206001015490565b61026261029536600461203f565b6105fb565b6102626102a83660046120e9565b610692565b6102626102bb3660046120e9565b6106bd565b6101f1600081565b61026261073b565b6102e36102de366004612115565b6107e1565b6040516101fb919061221b565b6101f1600481565b60055460ff16610217565b61026261031136600461222e565b61090b565b6102626103243660046122a2565b61094e565b6102626109a0565b61034461033f3660046122f7565b610a44565b6040516001600160a01b0390911681526020016101fb565b61021761036a3660046120e9565b610a63565b61026261037d366004612319565b610a8c565b6101f1610390366004611dd6565b610a97565b6101f17f9f2df0fed2c77648de5860a4cc508cd0818c85b8b8a1ab4ceeef8d981c8956a681565b6102626103ca3660046120e9565b610aae565b6101f1600281565b6101f1600181565b6101f17f65d7a28e3265b37a6474929f336521b332c1681b933f6cb9f3376673440d862a81565b610217610414366004612355565b6001600160a01b03918216600090815260036020908152604080832093909416825291909152205460ff1690565b61026261045036600461237f565b610ad4565b6102626104633660046123e4565b610b19565b60006001600160a01b0383166104d95760405162461bcd60e51b815260206004820152602b60248201527f455243313135353a2062616c616e636520717565727920666f7220746865207a60448201526a65726f206164647265737360a81b60648201526084015b60405180910390fd5b5060008181526002602090815260408083206001600160a01b03861684529091529020545b92915050565b60006104fe82610c74565b60606004805461051e90612417565b80601f016020809104026020016040519081016040528092919081815260200182805461054a90612417565b80156105975780601f1061056c57610100808354040283529160200191610597565b820191906000526020600020905b81548152906001019060200180831161057a57829003601f168201915b50505050509050919050565b6105cd7f9f2df0fed2c77648de5860a4cc508cd0818c85b8b8a1ab4ceeef8d981c8956a633610a63565b6105e95760405162461bcd60e51b81526004016104d090612452565b6105f584848484610cb4565b50505050565b6001600160a01b03851633148061061757506106178533610414565b61067e5760405162461bcd60e51b815260206004820152603260248201527f455243313135353a207472616e736665722063616c6c6572206973206e6f74206044820152711bdddb995c881b9bdc88185c1c1c9bdd995960721b60648201526084016104d0565b61068b8585858585610e0f565b5050505050565b6000828152602081905260409020600101546106ae8133610fb4565b6106b88383611018565b505050565b6001600160a01b038116331461072d5760405162461bcd60e51b815260206004820152602f60248201527f416363657373436f6e74726f6c3a2063616e206f6e6c792072656e6f756e636560448201526e103937b632b9903337b91039b2b63360891b60648201526084016104d0565b610737828261103a565b5050565b6107657f65d7a28e3265b37a6474929f336521b332c1681b933f6cb9f3376673440d862a33610a63565b6107d75760405162461bcd60e51b815260206004820152603b60248201527f455243313135355072657365744d696e7465725061757365723a206d7573742060448201527f686176652070617573657220726f6c6520746f20756e7061757365000000000060648201526084016104d0565b6107df61105c565b565b606081518351146108465760405162461bcd60e51b815260206004820152602960248201527f455243313135353a206163636f756e747320616e6420696473206c656e677468604482015268040dad2e6dac2e8c6d60bb1b60648201526084016104d0565b6000835167ffffffffffffffff81111561086257610862611e5a565b60405190808252806020026020018201604052801561088b578160200160208202803683370190505b50905060005b8451811015610903576108d68582815181106108af576108af6124af565b60200260200101518583815181106108c9576108c96124af565b6020026020010151610468565b8282815181106108e8576108e86124af565b60209081029190910101526108fc816124db565b9050610891565b509392505050565b6001600160a01b03831633148061092757506109278333610414565b6109435760405162461bcd60e51b81526004016104d0906124f6565b6106b88383836110ef565b6109787f9f2df0fed2c77648de5860a4cc508cd0818c85b8b8a1ab4ceeef8d981c8956a633610a63565b6109945760405162461bcd60e51b81526004016104d090612452565b6105f584848484611280565b6109ca7f65d7a28e3265b37a6474929f336521b332c1681b933f6cb9f3376673440d862a33610a63565b610a3c5760405162461bcd60e51b815260206004820152603960248201527f455243313135355072657365744d696e7465725061757365723a206d7573742060448201527f686176652070617573657220726f6c6520746f2070617573650000000000000060648201526084016104d0565b6107df611358565b6000828152600160205260408120610a5c90836113d3565b9392505050565b6000918252602082815260408084206001600160a01b0393909316845291905290205460ff1690565b6107373383836113df565b60008181526001602052604081206104fe906114c0565b600082815260208190526040902060010154610aca8133610fb4565b6106b8838361103a565b6001600160a01b038516331480610af05750610af08533610414565b610b0c5760405162461bcd60e51b81526004016104d0906124f6565b61068b85858585856114ca565b6001600160a01b038316331480610b355750610b358333610414565b610b515760405162461bcd60e51b81526004016104d0906124f6565b6106b88383836115eb565b610b668282610a63565b610737576000828152602081815260408083206001600160a01b03851684529091529020805460ff19166001179055610b9c3390565b6001600160a01b0316816001600160a01b0316837f2f8788117e7eff1d82e926ec794901d17c78024a50270940304540a733656f0d60405160405180910390a45050565b6000610a5c836001600160a01b0384166116f0565b60055460ff1615610c5d5760405162461bcd60e51b815260206004820152602c60248201527f455243313135355061757361626c653a20746f6b656e207472616e736665722060448201526b1dda1a5b19481c185d5cd95960a21b60648201526084016104d0565b505050505050565b6001600160a01b03163b151590565b60006001600160e01b03198216636cdb3d1360e11b1480610ca557506001600160e01b031982166303a24d0760e21b145b806104fe57506104fe8261173f565b6001600160a01b038416610cda5760405162461bcd60e51b81526004016104d09061253f565b8151835114610cfb5760405162461bcd60e51b81526004016104d090612580565b33610d0b81600087878787611764565b60005b8451811015610da757838181518110610d2957610d296124af565b602002602001015160026000878481518110610d4757610d476124af565b602002602001015181526020019081526020016000206000886001600160a01b03166001600160a01b031681526020019081526020016000206000828254610d8f91906125c8565b90915550819050610d9f816124db565b915050610d0e565b50846001600160a01b031660006001600160a01b0316826001600160a01b03167f4a39dc06d4c0dbc64b70af90fd698a233a518aa5d07e595d983b8c0526c8f7fb8787604051610df89291906125e0565b60405180910390a461068b81600087878787611772565b8151835114610e305760405162461bcd60e51b81526004016104d090612580565b6001600160a01b038416610e565760405162461bcd60e51b81526004016104d09061260e565b33610e65818787878787611764565b60005b8451811015610f4e576000858281518110610e8557610e856124af565b602002602001015190506000858381518110610ea357610ea36124af565b60209081029190910181015160008481526002835260408082206001600160a01b038e168352909352919091205490915081811015610ef45760405162461bcd60e51b81526004016104d090612653565b60008381526002602090815260408083206001600160a01b038e8116855292528083208585039055908b16825281208054849290610f339084906125c8565b9250508190555050505080610f47906124db565b9050610e68565b50846001600160a01b0316866001600160a01b0316826001600160a01b03167f4a39dc06d4c0dbc64b70af90fd698a233a518aa5d07e595d983b8c0526c8f7fb8787604051610f9e9291906125e0565b60405180910390a4610c5d818787878787611772565b610fbe8282610a63565b61073757610fd6816001600160a01b031660146118dd565b610fe18360206118dd565b604051602001610ff292919061269d565b60408051601f198184030181529082905262461bcd60e51b82526104d091600401611e47565b6110228282610b5c565b60008281526001602052604090206106b89082610be0565b6110448282611a79565b60008281526001602052604090206106b89082611ade565b60055460ff166110a55760405162461bcd60e51b815260206004820152601460248201527314185d5cd8589b194e881b9bdd081c185d5cd95960621b60448201526064016104d0565b6005805460ff191690557f5db9ee0a495bf2e6ff9c91a7834c1ba4fdd244a5e8aa4e537bd38aeae4b073aa335b6040516001600160a01b03909116815260200160405180910390a1565b6001600160a01b0383166111155760405162461bcd60e51b81526004016104d090612712565b80518251146111365760405162461bcd60e51b81526004016104d090612580565b600033905061115981856000868660405180602001604052806000815250611764565b60005b8351811015611221576000848281518110611179576111796124af565b602002602001015190506000848381518110611197576111976124af565b60209081029190910181015160008481526002835260408082206001600160a01b038c1683529093529190912054909150818110156111e85760405162461bcd60e51b81526004016104d090612755565b60009283526002602090815260408085206001600160a01b038b1686529091529092209103905580611219816124db565b91505061115c565b5060006001600160a01b0316846001600160a01b0316826001600160a01b03167f4a39dc06d4c0dbc64b70af90fd698a233a518aa5d07e595d983b8c0526c8f7fb86866040516112729291906125e0565b60405180910390a450505050565b6001600160a01b0384166112a65760405162461bcd60e51b81526004016104d09061253f565b336112c6816000876112b788611af3565b6112c088611af3565b87611764565b60008481526002602090815260408083206001600160a01b0389168452909152812080548592906112f89084906125c8565b909155505060408051858152602081018590526001600160a01b0380881692600092918516917fc3d58168c5ae7397731d063d5bbf3d657854427343f4c083240f7aacaa2d0f62910160405180910390a461068b81600087878787611b3e565b60055460ff161561139e5760405162461bcd60e51b815260206004820152601060248201526f14185d5cd8589b194e881c185d5cd95960821b60448201526064016104d0565b6005805460ff191660011790557f62e78cea01bee320cd4e420270b5ea74000d11b0c9f74754ebdbfc544b05a2586110d23390565b6000610a5c8383611c08565b816001600160a01b0316836001600160a01b031614156114535760405162461bcd60e51b815260206004820152602960248201527f455243313135353a2073657474696e6720617070726f76616c20737461747573604482015268103337b91039b2b63360b91b60648201526084016104d0565b6001600160a01b03838116600081815260036020908152604080832094871680845294825291829020805460ff191686151590811790915591519182527f17307eab39ab6107e8899845ad3d59bd9653f200f220920489ca2b5937696c31910160405180910390a3505050565b60006104fe825490565b6001600160a01b0384166114f05760405162461bcd60e51b81526004016104d09061260e565b336115008187876112b788611af3565b60008481526002602090815260408083206001600160a01b038a168452909152902054838110156115435760405162461bcd60e51b81526004016104d090612653565b60008581526002602090815260408083206001600160a01b038b81168552925280832087850390559088168252812080548692906115829084906125c8565b909155505060408051868152602081018690526001600160a01b03808916928a821692918616917fc3d58168c5ae7397731d063d5bbf3d657854427343f4c083240f7aacaa2d0f62910160405180910390a46115e2828888888888611b3e565b50505050505050565b6001600160a01b0383166116115760405162461bcd60e51b81526004016104d090612712565b336116408185600061162287611af3565b61162b87611af3565b60405180602001604052806000815250611764565b60008381526002602090815260408083206001600160a01b0388168452909152902054828110156116835760405162461bcd60e51b81526004016104d090612755565b60008481526002602090815260408083206001600160a01b03898116808652918452828520888703905582518981529384018890529092908616917fc3d58168c5ae7397731d063d5bbf3d657854427343f4c083240f7aacaa2d0f62910160405180910390a45050505050565b6000818152600183016020526040812054611737575081546001818101845560008481526020808220909301849055845484825282860190935260409020919091556104fe565b5060006104fe565b60006001600160e01b03198216635a05180f60e01b14806104fe57506104fe82611c32565b610c5d868686868686610bf5565b6001600160a01b0384163b15610c5d5760405163bc197c8160e01b81526001600160a01b0385169063bc197c81906117b69089908990889088908890600401612799565b602060405180830381600087803b1580156117d057600080fd5b505af1925050508015611800575060408051601f3d908101601f191682019092526117fd918101906127f7565b60015b6118ad5761180c612814565b806308c379a014156118465750611821612830565b8061182c5750611848565b8060405162461bcd60e51b81526004016104d09190611e47565b505b60405162461bcd60e51b815260206004820152603460248201527f455243313135353a207472616e7366657220746f206e6f6e20455243313135356044820152732932b1b2b4bb32b91034b6b83632b6b2b73a32b960611b60648201526084016104d0565b6001600160e01b0319811663bc197c8160e01b146115e25760405162461bcd60e51b81526004016104d0906128ba565b606060006118ec836002612902565b6118f79060026125c8565b67ffffffffffffffff81111561190f5761190f611e5a565b6040519080825280601f01601f191660200182016040528015611939576020820181803683370190505b509050600360fc1b81600081518110611954576119546124af565b60200101906001600160f81b031916908160001a905350600f60fb1b81600181518110611983576119836124af565b60200101906001600160f81b031916908160001a90535060006119a7846002612902565b6119b29060016125c8565b90505b6001811115611a2a576f181899199a1a9b1b9c1cb0b131b232b360811b85600f16601081106119e6576119e66124af565b1a60f81b8282815181106119fc576119fc6124af565b60200101906001600160f81b031916908160001a90535060049490941c93611a2381612921565b90506119b5565b508315610a5c5760405162461bcd60e51b815260206004820181905260248201527f537472696e67733a20686578206c656e67746820696e73756666696369656e7460448201526064016104d0565b611a838282610a63565b15610737576000828152602081815260408083206001600160a01b0385168085529252808320805460ff1916905551339285917ff6391f5c32d9c69d2a47ea670b442974b53935d1edc7fd64eb21e047a839171b9190a45050565b6000610a5c836001600160a01b038416611c67565b60408051600180825281830190925260609160009190602080830190803683370190505090508281600081518110611b2d57611b2d6124af565b602090810291909101015292915050565b6001600160a01b0384163b15610c5d5760405163f23a6e6160e01b81526001600160a01b0385169063f23a6e6190611b829089908990889088908890600401612938565b602060405180830381600087803b158015611b9c57600080fd5b505af1925050508015611bcc575060408051601f3d908101601f19168201909252611bc9918101906127f7565b60015b611bd85761180c612814565b6001600160e01b0319811663f23a6e6160e01b146115e25760405162461bcd60e51b81526004016104d0906128ba565b6000826000018281548110611c1f57611c1f6124af565b9060005260206000200154905092915050565b60006001600160e01b03198216637965db0b60e01b14806104fe57506301ffc9a760e01b6001600160e01b03198316146104fe565b60008181526001830160205260408120548015611d50576000611c8b60018361297d565b8554909150600090611c9f9060019061297d565b9050818114611d04576000866000018281548110611cbf57611cbf6124af565b9060005260206000200154905080876000018481548110611ce257611ce26124af565b6000918252602080832090910192909255918252600188019052604090208390555b8554869080611d1557611d15612994565b6001900381819060005260206000200160009055905585600101600086815260200190815260200160002060009055600193505050506104fe565b60009150506104fe565b80356001600160a01b0381168114611d7157600080fd5b919050565b60008060408385031215611d8957600080fd5b611d9283611d5a565b946020939093013593505050565b6001600160e01b031981168114611db657600080fd5b50565b600060208284031215611dcb57600080fd5b8135610a5c81611da0565b600060208284031215611de857600080fd5b5035919050565b60005b83811015611e0a578181015183820152602001611df2565b838111156105f55750506000910152565b60008151808452611e33816020860160208601611def565b601f01601f19169290920160200192915050565b602081526000610a5c6020830184611e1b565b634e487b7160e01b600052604160045260246000fd5b601f8201601f1916810167ffffffffffffffff81118282101715611e9657611e96611e5a565b6040525050565b600067ffffffffffffffff821115611eb757611eb7611e5a565b5060051b60200190565b600082601f830112611ed257600080fd5b81356020611edf82611e9d565b604051611eec8282611e70565b83815260059390931b8501820192828101915086841115611f0c57600080fd5b8286015b84811015611f275780358352918301918301611f10565b509695505050505050565b600082601f830112611f4357600080fd5b813567ffffffffffffffff811115611f5d57611f5d611e5a565b604051611f74601f8301601f191660200182611e70565b818152846020838601011115611f8957600080fd5b816020850160208301376000918101602001919091529392505050565b60008060008060808587031215611fbc57600080fd5b611fc585611d5a565b9350602085013567ffffffffffffffff80821115611fe257600080fd5b611fee88838901611ec1565b9450604087013591508082111561200457600080fd5b61201088838901611ec1565b9350606087013591508082111561202657600080fd5b5061203387828801611f32565b91505092959194509250565b600080600080600060a0868803121561205757600080fd5b61206086611d5a565b945061206e60208701611d5a565b9350604086013567ffffffffffffffff8082111561208b57600080fd5b61209789838a01611ec1565b945060608801359150808211156120ad57600080fd5b6120b989838a01611ec1565b935060808801359150808211156120cf57600080fd5b506120dc88828901611f32565b9150509295509295909350565b600080604083850312156120fc57600080fd5b8235915061210c60208401611d5a565b90509250929050565b6000806040838503121561212857600080fd5b823567ffffffffffffffff8082111561214057600080fd5b818501915085601f83011261215457600080fd5b8135602061216182611e9d565b60405161216e8282611e70565b83815260059390931b850182019282810191508984111561218e57600080fd5b948201945b838610156121b3576121a486611d5a565b82529482019490820190612193565b965050860135925050808211156121c957600080fd5b506121d685828601611ec1565b9150509250929050565b600081518084526020808501945080840160005b83811015612210578151875295820195908201906001016121f4565b509495945050505050565b602081526000610a5c60208301846121e0565b60008060006060848603121561224357600080fd5b61224c84611d5a565b9250602084013567ffffffffffffffff8082111561226957600080fd5b61227587838801611ec1565b9350604086013591508082111561228b57600080fd5b5061229886828701611ec1565b9150509250925092565b600080600080608085870312156122b857600080fd5b6122c185611d5a565b93506020850135925060408501359150606085013567ffffffffffffffff8111156122eb57600080fd5b61203387828801611f32565b6000806040838503121561230a57600080fd5b50508035926020909101359150565b6000806040838503121561232c57600080fd5b61233583611d5a565b91506020830135801515811461234a57600080fd5b809150509250929050565b6000806040838503121561236857600080fd5b61237183611d5a565b915061210c60208401611d5a565b600080600080600060a0868803121561239757600080fd5b6123a086611d5a565b94506123ae60208701611d5a565b93506040860135925060608601359150608086013567ffffffffffffffff8111156123d857600080fd5b6120dc88828901611f32565b6000806000606084860312156123f957600080fd5b61240284611d5a565b95602085013595506040909401359392505050565b600181811c9082168061242b57607f821691505b6020821081141561244c57634e487b7160e01b600052602260045260246000fd5b50919050565b60208082526038908201527f455243313135355072657365744d696e7465725061757365723a206d7573742060408201527f68617665206d696e74657220726f6c6520746f206d696e740000000000000000606082015260800190565b634e487b7160e01b600052603260045260246000fd5b634e487b7160e01b600052601160045260246000fd5b60006000198214156124ef576124ef6124c5565b5060010190565b60208082526029908201527f455243313135353a2063616c6c6572206973206e6f74206f776e6572206e6f7260408201526808185c1c1c9bdd995960ba1b606082015260800190565b60208082526021908201527f455243313135353a206d696e7420746f20746865207a65726f206164647265736040820152607360f81b606082015260800190565b60208082526028908201527f455243313135353a2069647320616e6420616d6f756e7473206c656e677468206040820152670dad2e6dac2e8c6d60c31b606082015260800190565b600082198211156125db576125db6124c5565b500190565b6040815260006125f360408301856121e0565b828103602084015261260581856121e0565b95945050505050565b60208082526025908201527f455243313135353a207472616e7366657220746f20746865207a65726f206164604082015264647265737360d81b606082015260800190565b6020808252602a908201527f455243313135353a20696e73756666696369656e742062616c616e636520666f60408201526939103a3930b739b332b960b11b606082015260800190565b7f416363657373436f6e74726f6c3a206163636f756e74200000000000000000008152600083516126d5816017850160208801611def565b7001034b99036b4b9b9b4b733903937b6329607d1b6017918401918201528351612706816028840160208801611def565b01602801949350505050565b60208082526023908201527f455243313135353a206275726e2066726f6d20746865207a65726f206164647260408201526265737360e81b606082015260800190565b60208082526024908201527f455243313135353a206275726e20616d6f756e7420657863656564732062616c604082015263616e636560e01b606082015260800190565b6001600160a01b0386811682528516602082015260a0604082018190526000906127c5908301866121e0565b82810360608401526127d781866121e0565b905082810360808401526127eb8185611e1b565b98975050505050505050565b60006020828403121561280957600080fd5b8151610a5c81611da0565b600060033d111561282d5760046000803e5060005160e01c5b90565b600060443d101561283e5790565b6040516003193d81016004833e81513d67ffffffffffffffff816024840111818411171561286e57505050505090565b82850191508151818111156128865750505050505090565b843d87010160208285010111156128a05750505050505090565b6128af60208286010187611e70565b509095945050505050565b60208082526028908201527f455243313135353a204552433131353552656365697665722072656a656374656040820152676420746f6b656e7360c01b606082015260800190565b600081600019048311821515161561291c5761291c6124c5565b500290565b600081612930576129306124c5565b506000190190565b6001600160a01b03868116825285166020820152604081018490526060810183905260a06080820181905260009061297290830184611e1b565b979650505050505050565b60008282101561298f5761298f6124c5565b500390565b634e487b7160e01b600052603160045260246000fdfea2646970667358221220c5768915132d9304e65bdc7290ccec1c7f4a39ac0c7e8223b884117f6c4d12dc64736f6c6343000809003368747470733a2f2f67616d652e6578616d706c652f6170692f6974656d2f7b69647d2e6a736f6e",
  "devdoc": {
    "kind": "dev",
    "methods": {
      "balanceOf(address,uint256)": {
        "details": "See {IERC1155-balanceOf}. Requirements: - `account` cannot be the zero address."
      },
      "balanceOfBatch(address[],uint256[])": {
        "details": "See {IERC1155-balanceOfBatch}. Requirements: - `accounts` and `ids` must have the same length."
      },
      "getRoleAdmin(bytes32)": {
        "details": "Returns the admin role that controls `role`. See {grantRole} and {revokeRole}. To change a role's admin, use {_setRoleAdmin}."
      },
      "getRoleMember(bytes32,uint256)": {
        "details": "Returns one of the accounts that have `role`. `index` must be a value between 0 and {getRoleMemberCount}, non-inclusive. Role bearers are not sorted in any particular way, and their ordering may change at any point. WARNING: When using {getRoleMember} and {getRoleMemberCount}, make sure you perform all queries on the same block. See the following https://forum.openzeppelin.com/t/iterating-over-elements-on-enumerableset-in-openzeppelin-contracts/2296[forum post] for more information."
      },
      "getRoleMemberCount(bytes32)": {
        "details": "Returns the number of accounts that have `role`. Can be used together with {getRoleMember} to enumerate all bearers of a role."
      },
      "grantRole(bytes32,address)": {
        "details": "Grants `role` to `account`. If `account` had not been already granted `role`, emits a {RoleGranted} event. Requirements: - the caller must have ``role``'s admin role."
      },
      "hasRole(bytes32,address)": {
        "details": "Returns `true` if `account` has been granted `role`."
      },
      "isApprovedForAll(address,address)": {
        "details": "See {IERC1155-isApprovedForAll}."
      },
      "mint(address,uint256,uint256,bytes)": {
        "details": "Creates `amount` new tokens for `to`, of token type `id`. See {ERC1155-_mint}. Requirements: - the caller must have the `MINTER_ROLE`."
      },
      "mintBatch(address,uint256[],uint256[],bytes)": {
        "details": "xref:ROOT:erc1155.adoc#batch-operations[Batched] variant of {mint}."
      },
      "pause()": {
        "details": "Pauses all token transfers. See {ERC1155Pausable} and {Pausable-_pause}. Requirements: - the caller must have the `PAUSER_ROLE`."
      },
      "paused()": {
        "details": "Returns true if the contract is paused, and false otherwise."
      },
      "renounceRole(bytes32,address)": {
        "details": "Revokes `role` from the calling account. Roles are often managed via {grantRole} and {revokeRole}: this function's purpose is to provide a mechanism for accounts to lose their privileges if they are compromised (such as when a trusted device is misplaced). If the calling account had been revoked `role`, emits a {RoleRevoked} event. Requirements: - the caller must be `account`."
      },
      "revokeRole(bytes32,address)": {
        "details": "Revokes `role` from `account`. If `account` had been granted `role`, emits a {RoleRevoked} event. Requirements: - the caller must have ``role``'s admin role."
      },
      "safeBatchTransferFrom(address,address,uint256[],uint256[],bytes)": {
        "details": "See {IERC1155-safeBatchTransferFrom}."
      },
      "safeTransferFrom(address,address,uint256,uint256,bytes)": {
        "details": "See {IERC1155-safeTransferFrom}."
      },
      "setApprovalForAll(address,bool)": {
        "details": "See {IERC1155-setApprovalForAll}."
      },
      "supportsInterface(bytes4)": {
        "details": "See {IERC165-supportsInterface}."
      },
      "unpause()": {
        "details": "Unpauses all token transfers. See {ERC1155Pausable} and {Pausable-_unpause}. Requirements: - the caller must have the `PAUSER_ROLE`."
      },
      "uri(uint256)": {
        "details": "See {IERC1155MetadataURI-uri}. This implementation returns the same URI for *all* token types. It relies on the token type ID substitution mechanism https://eips.ethereum.org/EIPS/eip-1155#metadata[defined in the EIP]. Clients calling this function must replace the `\\{id\\}` substring with the actual token type ID."
      }
    },
    "version": 1
  },
  "userdoc": {
    "kind": "user",
    "methods": {},
    "version": 1
  },
  "storageLayout": {
    "storage": [
      {
        "astId": 24,
        "contract": "contracts/ERC1155Token.sol:ERC1155Token",
        "label": "_roles",
        "offset": 0,
        "slot": "0",
        "type": "t_mapping(t_bytes32,t_struct(RoleData)19_storage)"
      },
      {
        "astId": 327,
        "contract": "contracts/ERC1155Token.sol:ERC1155Token",
        "label": "_roleMembers",
        "offset": 0,
        "slot": "1",
        "type": "t_mapping(t_bytes32,t_struct(AddressSet)3080_storage)"
      },
      {
        "astId": 649,
        "contract": "contracts/ERC1155Token.sol:ERC1155Token",
        "label": "_balances",
        "offset": 0,
        "slot": "2",
        "type": "t_mapping(t_uint256,t_mapping(t_address,t_uint256))"
      },
      {
        "astId": 655,
        "contract": "contracts/ERC1155Token.sol:ERC1155Token",
        "label": "_operatorApprovals",
        "offset": 0,
        "slot": "3",
        "type": "t_mapping(t_address,t_mapping(t_address,t_bool))"
      },
      {
        "astId": 657,
        "contract": "contracts/ERC1155Token.sol:ERC1155Token",
        "label": "_uri",
        "offset": 0,
        "slot": "4",
        "type": "t_string_storage"
      },
      {
        "astId": 549,
        "contract": "contracts/ERC1155Token.sol:ERC1155Token",
        "label": "_paused",
        "offset": 0,
        "slot": "5",
        "type": "t_bool"
      }
    ],
    "types": {
      "t_address": {
        "encoding": "inplace",
        "label": "address",
        "numberOfBytes": "20"
      },
      "t_array(t_bytes32)dyn_storage": {
        "base": "t_bytes32",
        "encoding": "dynamic_array",
        "label": "bytes32[]",
        "numberOfBytes": "32"
      },
      "t_bool": {
        "encoding": "inplace",
        "label": "bool",
        "numberOfBytes": "1"
      },
      "t_bytes32": {
        "encoding": "inplace",
        "label": "bytes32",
        "numberOfBytes": "32"
      },
      "t_mapping(t_address,t_bool)": {
        "encoding": "mapping",
        "key": "t_address",
        "label": "mapping(address => bool)",
        "numberOfBytes": "32",
        "value": "t_bool"
      },
      "t_mapping(t_address,t_mapping(t_address,t_bool))": {
        "encoding": "mapping",
        "key": "t_address",
        "label": "mapping(address => mapping(address => bool))",
        "numberOfBytes": "32",
        "value": "t_mapping(t_address,t_bool)"
      },
      "t_mapping(t_address,t_uint256)": {
        "encoding": "mapping",
        "key": "t_address",
        "label": "mapping(address => uint256)",
        "numberOfBytes": "32",
        "value": "t_uint256"
      },
      "t_mapping(t_bytes32,t_struct(AddressSet)3080_storage)": {
        "encoding": "mapping",
        "key": "t_bytes32",
        "label": "mapping(bytes32 => struct EnumerableSet.AddressSet)",
        "numberOfBytes": "32",
        "value": "t_struct(AddressSet)3080_storage"
      },
      "t_mapping(t_bytes32,t_struct(RoleData)19_storage)": {
        "encoding": "mapping",
        "key": "t_bytes32",
        "label": "mapping(bytes32 => struct AccessControl.RoleData)",
        "numberOfBytes": "32",
        "value": "t_struct(RoleData)19_storage"
      },
      "t_mapping(t_bytes32,t_uint256)": {
        "encoding": "mapping",
        "key": "t_bytes32",
        "label": "mapping(bytes32 => uint256)",
        "numberOfBytes": "32",
        "value": "t_uint256"
      },
      "t_mapping(t_uint256,t_mapping(t_address,t_uint256))": {
        "encoding": "mapping",
        "key": "t_uint256",
        "label": "mapping(uint256 => mapping(address => uint256))",
        "numberOfBytes": "32",
        "value": "t_mapping(t_address,t_uint256)"
      },
      "t_string_storage": {
        "encoding": "bytes",
        "label": "string",
        "numberOfBytes": "32"
      },
      "t_struct(AddressSet)3080_storage": {
        "encoding": "inplace",
        "label": "struct EnumerableSet.AddressSet",
        "members": [
          {
            "astId": 3079,
            "contract": "contracts/ERC1155Token.sol:ERC1155Token",
            "label": "_inner",
            "offset": 0,
            "slot": "0",
            "type": "t_struct(Set)2779_storage"
          }
        ],
        "numberOfBytes": "64"
      },
      "t_struct(RoleData)19_storage": {
        "encoding": "inplace",
        "label": "struct AccessControl.RoleData",
        "members": [
          {
            "astId": 16,
            "contract": "contracts/ERC1155Token.sol:ERC1155Token",
            "label": "members",
            "offset": 0,
            "slot": "0",
            "type": "t_mapping(t_address,t_bool)"
          },
          {
            "astId": 18,
            "contract": "contracts/ERC1155Token.sol:ERC1155Token",
            "label": "adminRole",
            "offset": 0,
            "slot": "1",
            "type": "t_bytes32"
          }
        ],
        "numberOfBytes": "64"
      },
      "t_struct(Set)2779_storage": {
        "encoding": "inplace",
        "label": "struct EnumerableSet.Set",
        "members": [
          {
            "astId": 2774,
            "contract": "contracts/ERC1155Token.sol:ERC1155Token",
            "label": "_values",
            "offset": 0,
            "slot": "0",
            "type": "t_array(t_bytes32)dyn_storage"
          },
          {
            "astId": 2778,
            "contract": "contracts/ERC1155Token.sol:ERC1155Token",
            "label": "_indexes",
            "offset": 0,
            "slot": "1",
            "type": "t_mapping(t_bytes32,t_uint256)"
          }
        ],
        "numberOfBytes": "64"
      },
      "t_uint256": {
        "encoding": "inplace",
        "label": "uint256",
        "numberOfBytes": "32"
      }
    }
  }
}